{
  "contractName": "BridgeArbitrum",
  "abi": [
    {
      "inputs": [
        {
          "internalType": "address",
          "name": "token",
          "type": "address"
        }
      ],
      "stateMutability": "nonpayable",
      "type": "constructor"
    },
    {
      "anonymous": false,
      "inputs": [
        {
          "indexed": false,
          "internalType": "address",
          "name": "user",
          "type": "address"
        },
        {
          "indexed": false,
          "internalType": "uint256",
          "name": "amount",
          "type": "uint256"
        },
        {
          "indexed": false,
          "internalType": "uint256",
          "name": "nonce",
          "type": "uint256"
        },
        {
          "indexed": false,
          "internalType": "bytes",
          "name": "signature",
          "type": "bytes"
        },
        {
          "indexed": false,
          "internalType": "string",
          "name": "sourceChain",
          "type": "string"
        },
        {
          "indexed": false,
          "internalType": "string",
          "name": "destinationChain",
          "type": "string"
        }
      ],
      "name": "DepositSuccess",
      "type": "event"
    },
    {
      "anonymous": false,
      "inputs": [
        {
          "indexed": false,
          "internalType": "address",
          "name": "user",
          "type": "address"
        },
        {
          "indexed": false,
          "internalType": "uint256",
          "name": "amount",
          "type": "uint256"
        },
        {
          "indexed": false,
          "internalType": "uint256",
          "name": "nonce",
          "type": "uint256"
        },
        {
          "indexed": false,
          "internalType": "bytes",
          "name": "signature",
          "type": "bytes"
        },
        {
          "indexed": false,
          "internalType": "string",
          "name": "sourceChain",
          "type": "string"
        },
        {
          "indexed": false,
          "internalType": "string",
          "name": "destinationChain",
          "type": "string"
        }
      ],
      "name": "WithdrawSuccess",
      "type": "event"
    },
    {
      "inputs": [
        {
          "internalType": "address",
          "name": "user",
          "type": "address"
        },
        {
          "internalType": "bytes",
          "name": "signature",
          "type": "bytes"
        }
      ],
      "name": "isTransactionProcessed",
      "outputs": [
        {
          "internalType": "bool",
          "name": "",
          "type": "bool"
        }
      ],
      "stateMutability": "nonpayable",
      "type": "function"
    },
    {
      "inputs": [
        {
          "internalType": "address",
          "name": "user",
          "type": "address"
        },
        {
          "internalType": "uint256",
          "name": "amount",
          "type": "uint256"
        },
        {
          "internalType": "uint256",
          "name": "nonce",
          "type": "uint256"
        },
        {
          "internalType": "bytes",
          "name": "signature",
          "type": "bytes"
        },
        {
          "internalType": "string",
          "name": "sourceChain",
          "type": "string"
        },
        {
          "internalType": "string",
          "name": "destinationChain",
          "type": "string"
        }
      ],
      "name": "swap",
      "outputs": [],
      "stateMutability": "nonpayable",
      "type": "function"
    },
    {
      "inputs": [
        {
          "internalType": "address",
          "name": "user",
          "type": "address"
        },
        {
          "internalType": "uint256",
          "name": "amount",
          "type": "uint256"
        },
        {
          "internalType": "uint256",
          "name": "nonce",
          "type": "uint256"
        },
        {
          "internalType": "bytes",
          "name": "signature",
          "type": "bytes"
        },
        {
          "internalType": "string",
          "name": "sourceChain",
          "type": "string"
        },
        {
          "internalType": "string",
          "name": "destinationChain",
          "type": "string"
        }
      ],
      "name": "withdraw",
      "outputs": [],
      "stateMutability": "nonpayable",
      "type": "function"
    }
  ],
  "bytecode": "0x60806040523480156200001157600080fd5b5060405162001358380380620013588339818101604052810190620000379190620000ea565b80806000806101000a81548173ffffffffffffffffffffffffffffffffffffffff021916908373ffffffffffffffffffffffffffffffffffffffff16021790555050506200011c565b600080fd5b600073ffffffffffffffffffffffffffffffffffffffff82169050919050565b6000620000b28262000085565b9050919050565b620000c481620000a5565b8114620000d057600080fd5b50565b600081519050620000e481620000b9565b92915050565b60006020828403121562000103576200010262000080565b5b60006200011384828501620000d3565b91505092915050565b61122c806200012c6000396000f3fe608060405234801561001057600080fd5b50600436106100415760003560e01c80631b63509e1461004657806384e6069a14610076578063d3752afb14610092575b600080fd5b610060600480360381019061005b9190610950565b6100ae565b60405161006d91906109c7565b60405180910390f35b610090600480360381019061008b9190610ab9565b610121565b005b6100ac60048036038101906100a79190610ab9565b61040c565b005b6000600160008473ffffffffffffffffffffffffffffffffffffffff1673ffffffffffffffffffffffffffffffffffffffff168152602001908152602001600020826040516100fd9190610c14565b908152602001604051809103902060009054906101000a900460ff16905092915050565b600061015687878760405160200161013b93929190610c94565b604051602081830303815290604052805190602001206106bf565b90508673ffffffffffffffffffffffffffffffffffffffff1661017982866106ef565b73ffffffffffffffffffffffffffffffffffffffff16146101cf576040517f08c379a00000000000000000000000000000000000000000000000000000000081526004016101c690610d54565b60405180910390fd5b8560008054906101000a900473ffffffffffffffffffffffffffffffffffffffff1673ffffffffffffffffffffffffffffffffffffffff1663dd62ed3e33306040518363ffffffff1660e01b815260040161022b929190610d83565b602060405180830381865afa158015610248573d6000803e3d6000fd5b505050506040513d601f19601f8201168201806040525081019061026c9190610dc1565b10156102ad576040517f08c379a00000000000000000000000000000000000000000000000000000000081526004016102a490610e60565b60405180910390fd5b60008054906101000a900473ffffffffffffffffffffffffffffffffffffffff1673ffffffffffffffffffffffffffffffffffffffff166323b872dd8830896040518463ffffffff1660e01b815260040161030a93929190610e8f565b6020604051808303816000875af1158015610329573d6000803e3d6000fd5b505050506040513d601f19601f8201168201806040525081019061034d9190610ef2565b506000600160008973ffffffffffffffffffffffffffffffffffffffff1673ffffffffffffffffffffffffffffffffffffffff1681526020019081526020016000208560405161039d9190610c14565b908152602001604051809103902060006101000a81548160ff0219169083151502179055507fd1cba82d921e87a7d91ad09bc181b278d0b2de7388c131164a9609dcabfa187a8787878787876040516103fb96959493929190610fad565b60405180910390a150505050505050565b600061044187878760405160200161042693929190610c94565b604051602081830303815290604052805190602001206106bf565b90508673ffffffffffffffffffffffffffffffffffffffff1661046482866106ef565b73ffffffffffffffffffffffffffffffffffffffff16146104ba576040517f08c379a00000000000000000000000000000000000000000000000000000000081526004016104b190610d54565b60405180910390fd5b600160008873ffffffffffffffffffffffffffffffffffffffff1673ffffffffffffffffffffffffffffffffffffffff168152602001908152602001600020846040516105079190610c14565b908152602001604051809103902060009054906101000a900460ff1615610563576040517f08c379a000000000000000000000000000000000000000000000000000000000815260040161055a90611095565b60405180910390fd5b60008054906101000a900473ffffffffffffffffffffffffffffffffffffffff1673ffffffffffffffffffffffffffffffffffffffff1663a9059cbb88886040518363ffffffff1660e01b81526004016105be9291906110b5565b6020604051808303816000875af11580156105dd573d6000803e3d6000fd5b505050506040513d601f19601f820116820180604052508101906106019190610ef2565b5060018060008973ffffffffffffffffffffffffffffffffffffffff1673ffffffffffffffffffffffffffffffffffffffff168152602001908152602001600020856040516106509190610c14565b908152602001604051809103902060006101000a81548160ff0219169083151502179055507fbb8d05d2a0bb526250a8567c0cfd4bd33c68de8d0e69af49ed6d45a2b4a992848787878787876040516106ae96959493929190610fad565b60405180910390a150505050505050565b6000816040516020016106d29190611160565b604051602081830303815290604052805190602001209050919050565b6000806000806106fe85610764565b8093508194508295505050506001868484846040516000815260200160405260405161072d94939291906111b1565b6020604051602081039080840390855afa15801561074f573d6000803e3d6000fd5b50505060206040510351935050505092915050565b6000806000806000806020870151925060408701519150606087015160001a90508083839550955095505050509193909250565b6000604051905090565b600080fd5b600080fd5b600073ffffffffffffffffffffffffffffffffffffffff82169050919050565b60006107d7826107ac565b9050919050565b6107e7816107cc565b81146107f257600080fd5b50565b600081359050610804816107de565b92915050565b600080fd5b600080fd5b6000601f19601f8301169050919050565b7f4e487b7100000000000000000000000000000000000000000000000000000000600052604160045260246000fd5b61085d82610814565b810181811067ffffffffffffffff8211171561087c5761087b610825565b5b80604052505050565b600061088f610798565b905061089b8282610854565b919050565b600067ffffffffffffffff8211156108bb576108ba610825565b5b6108c482610814565b9050602081019050919050565b82818337600083830152505050565b60006108f36108ee846108a0565b610885565b90508281526020810184848401111561090f5761090e61080f565b5b61091a8482856108d1565b509392505050565b600082601f8301126109375761093661080a565b5b81356109478482602086016108e0565b91505092915050565b60008060408385031215610967576109666107a2565b5b6000610975858286016107f5565b925050602083013567ffffffffffffffff811115610996576109956107a7565b5b6109a285828601610922565b9150509250929050565b60008115159050919050565b6109c1816109ac565b82525050565b60006020820190506109dc60008301846109b8565b92915050565b6000819050919050565b6109f5816109e2565b8114610a0057600080fd5b50565b600081359050610a12816109ec565b92915050565b600067ffffffffffffffff821115610a3357610a32610825565b5b610a3c82610814565b9050602081019050919050565b6000610a5c610a5784610a18565b610885565b905082815260208101848484011115610a7857610a7761080f565b5b610a838482856108d1565b509392505050565b600082601f830112610aa057610a9f61080a565b5b8135610ab0848260208601610a49565b91505092915050565b60008060008060008060c08789031215610ad657610ad56107a2565b5b6000610ae489828a016107f5565b9650506020610af589828a01610a03565b9550506040610b0689828a01610a03565b945050606087013567ffffffffffffffff811115610b2757610b266107a7565b5b610b3389828a01610922565b935050608087013567ffffffffffffffff811115610b5457610b536107a7565b5b610b6089828a01610a8b565b92505060a087013567ffffffffffffffff811115610b8157610b806107a7565b5b610b8d89828a01610a8b565b9150509295509295509295565b600081519050919050565b600081905092915050565b60005b83811015610bce578082015181840152602081019050610bb3565b83811115610bdd576000848401525b50505050565b6000610bee82610b9a565b610bf88185610ba5565b9350610c08818560208601610bb0565b80840191505092915050565b6000610c208284610be3565b915081905092915050565b60008160601b9050919050565b6000610c4382610c2b565b9050919050565b6000610c5582610c38565b9050919050565b610c6d610c68826107cc565b610c4a565b82525050565b6000819050919050565b610c8e610c89826109e2565b610c73565b82525050565b6000610ca08286610c5c565b601482019150610cb08285610c7d565b602082019150610cc08284610c7d565b602082019150819050949350505050565b600082825260208201905092915050565b7f5369676e6174757265204572726f723a204e6f74205369676e6564206279207460008201527f68652050726f706f736572000000000000000000000000000000000000000000602082015250565b6000610d3e602b83610cd1565b9150610d4982610ce2565b604082019050919050565b60006020820190508181036000830152610d6d81610d31565b9050919050565b610d7d816107cc565b82525050565b6000604082019050610d986000830185610d74565b610da56020830184610d74565b9392505050565b600081519050610dbb816109ec565b92915050565b600060208284031215610dd757610dd66107a2565b5b6000610de584828501610dac565b91505092915050565b7f496e73756666696369656e7420416c6c6f77616e636520746f20636f6e74726160008201527f6374000000000000000000000000000000000000000000000000000000000000602082015250565b6000610e4a602283610cd1565b9150610e5582610dee565b604082019050919050565b60006020820190508181036000830152610e7981610e3d565b9050919050565b610e89816109e2565b82525050565b6000606082019050610ea46000830186610d74565b610eb16020830185610d74565b610ebe6040830184610e80565b949350505050565b610ecf816109ac565b8114610eda57600080fd5b50565b600081519050610eec81610ec6565b92915050565b600060208284031215610f0857610f076107a2565b5b6000610f1684828501610edd565b91505092915050565b600082825260208201905092915050565b6000610f3b82610b9a565b610f458185610f1f565b9350610f55818560208601610bb0565b610f5e81610814565b840191505092915050565b600081519050919050565b6000610f7f82610f69565b610f898185610cd1565b9350610f99818560208601610bb0565b610fa281610814565b840191505092915050565b600060c082019050610fc26000830189610d74565b610fcf6020830188610e80565b610fdc6040830187610e80565b8181036060830152610fee8186610f30565b905081810360808301526110028185610f74565b905081810360a08301526110168184610f74565b9050979650505050505050565b7f5472616e73616374696f6e2068617320616c7265616479206265656e2070726f60008201527f6365737365642100000000000000000000000000000000000000000000000000602082015250565b600061107f602783610cd1565b915061108a82611023565b604082019050919050565b600060208201905081810360008301526110ae81611072565b9050919050565b60006040820190506110ca6000830185610d74565b6110d76020830184610e80565b9392505050565b600081905092915050565b7f19457468657265756d205369676e6564204d6573736167653a0a333200000000600082015250565b600061111f601c836110de565b915061112a826110e9565b601c82019050919050565b6000819050919050565b6000819050919050565b61115a61115582611135565b61113f565b82525050565b600061116b82611112565b91506111778284611149565b60208201915081905092915050565b61118f81611135565b82525050565b600060ff82169050919050565b6111ab81611195565b82525050565b60006080820190506111c66000830187611186565b6111d360208301866111a2565b6111e06040830185611186565b6111ed6060830184611186565b9594505050505056fea264697066735822122097ae24a2b2a54e453f40df70fbd3ddb831f0eac0079bd58482b33a17f92479af64736f6c634300080d0033",
  "immutableReferences": {},
  "source": "pragma solidity ^0.8.0;\r\n\r\nimport \"./BridgeBase.sol\";\r\n\r\ncontract BridgeArbitrum is SwapBridgeBase {\r\n    constructor(address token) SwapBridgeBase(token) {}\r\n}\r\n",
  "sourcePath": "D:\\DeFi\\AnyChainSwap\\contracts\\BridgeArbitrum.sol",
  "compiler": {
    "name": "solc",
    "version": "0.8.13+commit.abaa5c0e.Emscripten.clang"
  },
  "schemaVersion": "3.4.11",
  "updatedAt": "2023-02-13T08:03:48.046Z",
  "networkType": "ethereum",
  "devdoc": {
    "kind": "dev",
    "methods": {},
    "version": 1
  },
  "userdoc": {
    "kind": "user",
    "methods": {},
    "version": 1
  }
}